{
  "_format": "hh-sol-artifact-1",
  "contractName": "EngineCreate",
  "sourceName": "contracts/test/house/HouseCreate.sol",
  "abi": [
    {
      "inputs": [],
      "stateMutability": "nonpayable",
      "type": "constructor"
    },
    {
      "inputs": [],
      "name": "CALLER",
      "outputs": [
        {
          "internalType": "address",
          "name": "",
          "type": "address"
        }
      ],
      "stateMutability": "view",
      "type": "function"
    },
    {
      "inputs": [
        {
          "internalType": "uint256",
          "name": "strike",
          "type": "uint256"
        },
        {
          "internalType": "uint256",
          "name": "sigma",
          "type": "uint256"
        },
        {
          "internalType": "uint256",
          "name": "time",
          "type": "uint256"
        },
        {
          "internalType": "uint256",
          "name": "riskyPrice",
          "type": "uint256"
        },
        {
          "internalType": "uint256",
          "name": "delLiquidity",
          "type": "uint256"
        },
        {
          "internalType": "bytes",
          "name": "data",
          "type": "bytes"
        }
      ],
      "name": "create",
      "outputs": [],
      "stateMutability": "nonpayable",
      "type": "function"
    },
    {
      "inputs": [
        {
          "internalType": "uint256",
          "name": "delRisky",
          "type": "uint256"
        },
        {
          "internalType": "uint256",
          "name": "delStable",
          "type": "uint256"
        },
        {
          "internalType": "bytes",
          "name": "data",
          "type": "bytes"
        }
      ],
      "name": "createCallback",
      "outputs": [],
      "stateMutability": "nonpayable",
      "type": "function"
    },
    {
      "inputs": [],
      "name": "engine",
      "outputs": [
        {
          "internalType": "address",
          "name": "",
          "type": "address"
        }
      ],
      "stateMutability": "view",
      "type": "function"
    },
    {
      "inputs": [
        {
          "internalType": "bytes32",
          "name": "pid",
          "type": "bytes32"
        }
      ],
      "name": "fetch",
      "outputs": [
        {
          "internalType": "uint128",
          "name": "float",
          "type": "uint128"
        },
        {
          "internalType": "uint128",
          "name": "liquidity",
          "type": "uint128"
        },
        {
          "internalType": "uint128",
          "name": "debt",
          "type": "uint128"
        }
      ],
      "stateMutability": "view",
      "type": "function"
    },
    {
      "inputs": [
        {
          "internalType": "address",
          "name": "_engine",
          "type": "address"
        },
        {
          "internalType": "address",
          "name": "_risky",
          "type": "address"
        },
        {
          "internalType": "address",
          "name": "_stable",
          "type": "address"
        }
      ],
      "name": "initialize",
      "outputs": [],
      "stateMutability": "nonpayable",
      "type": "function"
    },
    {
      "inputs": [],
      "name": "name",
      "outputs": [
        {
          "internalType": "string",
          "name": "",
          "type": "string"
        }
      ],
      "stateMutability": "pure",
      "type": "function"
    },
    {
      "inputs": [],
      "name": "risky",
      "outputs": [
        {
          "internalType": "address",
          "name": "",
          "type": "address"
        }
      ],
      "stateMutability": "view",
      "type": "function"
    },
    {
      "inputs": [],
      "name": "stable",
      "outputs": [
        {
          "internalType": "address",
          "name": "",
          "type": "address"
        }
      ],
      "stateMutability": "view",
      "type": "function"
    }
  ],
  "bytecode": "0x608060405234801561001057600080fd5b50610817806100206000396000f3fe608060405234801561001057600080fd5b50600436106100935760003560e01c8063b7d1b83911610066578063b7d1b839146100f5578063c08165d41461010a578063c0c53b8b14610112578063c171d27e14610125578063c9d4623f1461013857610093565b806306fdde031461009857806322be3de1146100b6578063863dabb4146100cb578063b61771e5146100d3575b600080fd5b6100a0610140565b6040516100ad9190610700565b60405180910390f35b6100be610166565b6040516100ad91906106bf565b6100be610175565b6100e66100e136600461055c565b610184565b6040516100ad93929190610753565b61010861010336600461062b565b610240565b005b6100be6102ed565b6101086101203660046104f3565b6102fc565b6101086101333660046105da565b61033b565b6100be610461565b60408051808201909152600c81526b456e67696e6543726561746560a01b602082015290565b6002546001600160a01b031681565b6003546001600160a01b031681565b60008054604051829182916001600160a01b039091169063514ea4bf906101b1903090889060200161069d565b604051602081830303815290604052805190602001206040518263ffffffff1660e01b81526004016101e391906106f7565b60606040518083038186803b1580156101fb57600080fd5b505afa15801561020f573d6000803e3d6000fd5b505050506040513d601f19601f8201168201806040525081019061023391906105a1565b9250925092509193909250565b600380546001600160a01b0319163317905560005460405163df064e8560e01b81526001600160a01b03919091169063df064e859061028f908a908a908a908a908a908a908a9060040161077f565b606060405180830381600087803b1580156102a957600080fd5b505af11580156102bd573d6000803e3d6000fd5b505050506040513d601f19601f820116820180604052508101906102e19190610574565b50505050505050505050565b6001546001600160a01b031681565b600080546001600160a01b039485166001600160a01b031991821617909155600180549385169382169390931790925560028054919093169116179055565b6001546003546000546040516323b872dd60e01b81526001600160a01b03938416936323b872dd93610378939082169291169089906004016106d3565b602060405180830381600087803b15801561039257600080fd5b505af11580156103a6573d6000803e3d6000fd5b505050506040513d601f19601f820116820180604052508101906103ca9190610535565b506002546003546000546040516323b872dd60e01b81526001600160a01b03938416936323b872dd93610408939082169291169088906004016106d3565b602060405180830381600087803b15801561042257600080fd5b505af1158015610436573d6000803e3d6000fd5b505050506040513d601f19601f8201168201806040525081019061045a9190610535565b5050505050565b6000546001600160a01b031681565b80356001600160a01b038116811461048757600080fd5b919050565b60008083601f84011261049d578182fd5b50813567ffffffffffffffff8111156104b4578182fd5b6020830191508360208285010111156104cc57600080fd5b9250929050565b80516fffffffffffffffffffffffffffffffff8116811461048757600080fd5b600080600060608486031215610507578283fd5b61051084610470565b925061051e60208501610470565b915061052c60408501610470565b90509250925092565b600060208284031215610546578081fd5b81518015158114610555578182fd5b9392505050565b60006020828403121561056d578081fd5b5035919050565b600080600060608486031215610588578283fd5b8351925060208401519150604084015190509250925092565b6000806000606084860312156105b5578283fd5b6105be846104d3565b92506105cc602085016104d3565b915061052c604085016104d3565b600080600080606085870312156105ef578081fd5b8435935060208501359250604085013567ffffffffffffffff811115610613578182fd5b61061f8782880161048c565b95989497509550505050565b600080600080600080600060c0888a031215610645578283fd5b873596506020880135955060408801359450606088013593506080880135925060a088013567ffffffffffffffff81111561067e578283fd5b61068a8a828b0161048c565b989b979a50959850939692959293505050565b60609290921b6bffffffffffffffffffffffff19168252601482015260340190565b6001600160a01b0391909116815260200190565b6001600160a01b039384168152919092166020820152604081019190915260600190565b90815260200190565b6000602080835283518082850152825b8181101561072c57858101830151858201604001528201610710565b8181111561073d5783604083870101525b50601f01601f1916929092016040019392505050565b6fffffffffffffffffffffffffffffffff93841681529183166020830152909116604082015260600190565b600088825267ffffffffffffffff8816602083015263ffffffff8716604083015285606083015284608083015260c060a08301528260c0830152828460e084013781830160e090810191909152601f909201601f19160101969550505050505056fea26469706673582212206c201d0286980b2566fd966791324bae0748d398f460ac716c3160f0f9769d3564736f6c63430008000033",
  "linkReferences": {},
  "deployedLinkReferences": {}
}